:100000000C943D010C946E010C946E010C946E01E5
:100010000C946E010C946E010C946E010C946E01A4
:100020000C946E010C946E010C946E010C946E0194
:100030000C946E010C946E010C946E010C946E0184
:100040000C946E010C946E010C946E010C946E0174
:100050000C946E010C946E010C946E010C947B0454
:100060000C946E010C94EF040C94C5040C946E0176
:100070000C946E010C946E010C946E010C946E0144
:100080000C946E010C946E010C946E010C946E0134
:100090000C946E010C946E010C946E010C946E0124
:1000A0000C946E010C946E010C946E010C946E0114
:1000B0000C946E010C946E010C946E010C946E0104
:1000C0000C946E010C946E010C946E010C946E01F4
:1000D0000C946E010C946E010C946E010C946E01E4
:1000E0000C946E01BE01C101B001B401B801F80168
:1000F000C501C901CF01D301D701DD01E101E5014E
:10010000F801EB01EF01F3010C94CF010C941A03F9
:100110000C94C1020C94EB010C94D7010C94B40123
:100120000C94F3010C94F8010C9461030C94B0014D
:100130000C94BE010C94E1010C94B8010C94C5011F
:100140000C9483020C94E5010C94C1010C94D3012E
:100150000C94EF010C94E3020C94C9010C94B202CC
:100160000C94DD010C9425050C94D50200010203CA
:10017000040500000A0B02090C0D0E080703040118
:10018000000000000000000000000000000000006F
:10019000000000000000000000000000000012113C
:1001A000100000000000000000000000000000003F
:1001B00000000000000000000000220025002800D0
:1001C0002B002E003100340002010000050108015F
:1001D0000B0100002100240027002A002D00300020
:1001E000330001010000040107010A0105050505AE
:1001F000070508080808020202020A0A080804049F
:1002000004040101010101010101030303030303CC
:100210000303040707070C0C0C0C0C0C0C0C02025B
:10022000020206060606060606060B0B0B0B0B0B58
:100230000B0B0102102020080810204010204080E5
:10024000020102010804020101020408102040809A
:100250008040201008040201800402018040201028
:100260000804020108040201010204081020408071
:100270000102040810204080250511241FBECFEF85
:10028000D1E2DEBFCDBF00E00CBF22E0A8E2B2E0C9
:1002900001C01D92A73EB207E1F712E0A0E0B2E074
:1002A000E4EEF4E100E00BBF02C007900D92A8322B
:1002B000B107D9F711E0CDE3D1E000E006C0219706
:1002C0000109802FFE010E94630ACC33D10780E030
:1002D0000807A9F70E946B050C94700A0C940000A3
:1002E00090E0FC01EE5CFD4F2491FC01E451FE4FD7
:1002F0008491882399F090E0880F991FFC01EE52B9
:10030000FE4FA591B491FC01E854FE4F8591949164
:100310008FB7F894EC91E22BEC938FBF0895362FB2
:1003200090E0FC01EE58FE4F4491FC01EE5CFD4F65
:100330002491FC01E451FE4F9491992309F46BC080
:10034000442309F455C050E0FA013197E231F10538
:1003500008F04EC08827EE58FF4F8F4F0C94630A69
:10036000809180008F7707C0809180008F7D03C0CF
:1003700080918000877F809380003AC084B58F771A
:1003800002C084B58F7D84BD33C08091B0008F776B
:1003900003C08091B0008F7D8093B00029C0809110
:1003A00090008F7707C0809190008F7D03C080916F
:1003B0009000877F809390001BC08091A0008F7772
:1003C00007C08091A0008F7D03C08091A000877F2F
:1003D0008093A0000DC0809120018F7707C080918D
:1003E00020018F7D03C080912001877F80932001B1
:1003F000E92FF0E0EE0FFF1FE854FE4FA591B491F6
:100400008FB7F894EC91311103C020952E2301C0D1
:100410002E2B2C938FBF08952091CF023091D002C4
:100420004091D1025091D2022417350721F0682F54
:10043000822F0C948F0108958230910538F0880F37
:10044000991F880F991F05970197F1F708953FB7F6
:10045000F89480912E0290912F02A0913002B091D9
:10046000310226B5A89B05C02F3F19F00196A11DAA
:10047000B11D3FBFBA2FA92F982F8827820F911D3A
:10048000A11DB11DBC01CD0142E0660F771F881F81
:10049000991F4A95D1F708958F929F92AF92BF927C
:1004A000CF92DF92EF92FF920E9427024B015C01F4
:1004B00085E0C82ED12CE12CF12C0E942702DC0112
:1004C000CB0188199909AA09BB09883E9340A10567
:1004D000B10558F021E0C21AD108E108F10888EE10
:1004E000880E83E0981EA11CB11CC114D104E10444
:1004F000F10419F7FF90EF90DF90CF90BF90AF908D
:100500009F908F900895CF92DF92EF92FF920F937A
:100510001F93CF93DF936C017A018B01C0E0D0E091
:10052000CE15DF0589F0D8016D918D01D601ED91D1
:10053000FC910190F081E02DC6011995892B11F4F1
:100540007E0102C02196ECCFC701DF91CF911F91B0
:100550000F91FF90EF90DF90CF900895089580E085
:1005600090E00895FC01538D448D252F30E0842FB9
:1005700090E0821B930B541710F0CF9608950197CB
:100580000895FC01918D828D981761F0828DDF01B5
:10059000A80FB11D5D968C91928D9F5F9F73928F76
:1005A00090E008958FEF9FEF0895FC01918D828D6B
:1005B000981731F0828DE80FF11D858D90E0089538
:1005C0008FEF9FEF0895FC01918D228D892F90E090
:1005D000805C9F4F821B91098F739927089582E356
:1005E00092E00E94E30221E0892B09F420E0822FAF
:1005F0000895FC01848DDF01A80FB11DA35ABF4FE0
:100600002C91848D90E001968F739927848FA68911
:10061000B7892C93A089B1898C9180648C93938D38
:10062000848D981306C00288F389E02D80818F7D28
:1006300080830895EF92FF920F931F93CF93DF93E0
:10064000EC0181E0888F9B8D8C8D981305C0E88923
:10065000F989808185FD24C0F62E0B8D10E00F5F97
:100660001F4F0F731127E02E8C8DE8120CC00FB6B0
:1006700007FCFACFE889F989808185FFF5CFCE01A3
:100680000E94F902F1CF8B8DFE01E80FF11DE35AB4
:10069000FF4FF0820B8FEA89FB898081806207C05F
:1006A000EE89FF896083E889F9898081806480838D
:1006B00081E090E0DF91CF911F910F91FF90EF903B
:1006C0000895CF93DF93EC01888D8823C9F0EA89E0
:1006D000FB89808185FD05C0A889B9898C9186FD3B
:1006E0000FC00FB607FCF5CF808185FFF2CFA88938
:1006F000B9898C9185FFEDCFCE010E94F902E7CF39
:10070000DF91CF91089580E090E0892B21F00E9445
:10071000EF02811125C080E090E0892B41F080E05C
:1007200090E0892B21F00E94000081111CC080E024
:1007300090E0892B41F080E090E0892B21F00E942D
:100740000000811113C080E090E0892BA1F080E0CF
:1007500090E0892B81F00E94000081110AC0089569
:100760000E940000D8CF0E940000E1CF0E9400004C
:10077000EACF0C94000008958EBD00000DB407FE72
:10078000FDCF8EB50895CF93DF939CB59F7D9CBD23
:100790009CB5937F9CBD9CB59C7F9CBD9DB5916095
:1007A0009DBDCFECD2E0682F8A810E948F018C8999
:1007B0009D89DF91CF910C941C0280E00C94C303BF
:1007C0001F93CF93DF931F92CDB7DEB789830E942B
:1007D000DD0389818F710E94BC038FEF0E94BC03EF
:1007E000182F81E00E94C303812F0F90DF91CF91DA
:1007F0001F9108951F93CF93DF931F921F92CDB740
:10080000DEB76A8389830E94DD0389818F718062EC
:100810000E94BC03182F6A81862F0E94BC0381E0CE
:100820000E94C303812F0F900F90DF91CF911F91F2
:100830000895CF930E94DD0381EE0E94BC03C82F70
:1008400081E00E94C3038C2FCF910895009769F037
:10085000FC0101900020E9F73197AF01481B590BCB
:10086000BC0182E392E00C94830280E090E0089562
:100870008F929F92AF92BF920F931F93CF93DF936C
:10088000CDB7DEB7A1970FB6F894DEBF0FBECDBFD0
:1008900019A2423008F44AE08E010F5D1F4F842EEA
:1008A000912CA12CB12CA50194010E94410AE62FA4
:1008B000B901CA0101501109EA3014F4E05D01C028
:1008C000E95CD801EC93232B242B252B61F7C8017D
:1008D0000E942604A1960FB6F894DEBF0FBECDBFCE
:1008E000DF91CF911F910F91BF90AF909F908F900C
:1008F00008950E946B0A1F920F920FB60F92112457
:100900002F933F938F939F93AF93BF9380912A022E
:1009100090912B02A0912C02B0912D0230912902CE
:1009200023E0230F2D3720F40196A11DB11D05C032
:1009300026E8230F0296A11DB11D20932902809362
:100940002A0290932B02A0932C02B0932D02809147
:100950002E0290912F02A0913002B09131020196A7
:10096000A11DB11D80932E0290932F02A0933002FF
:10097000B0933102BF91AF919F918F913F912F9191
:100980000F900FBE0F901F9018951F920F920FB6E9
:100990000F9211240BB60F922F933F934F935F93B7
:1009A0006F937F938F939F93AF93BF93EF93FF9337
:1009B00082E392E00E94F902FF91EF91BF91AF9123
:1009C0009F918F917F916F915F914F913F912F9167
:1009D0000F900BBE0F900FBE0F901F9018951F9297
:1009E0000F920FB60F9211240BB60F922F938F9385
:1009F0009F93EF93FF93E0914202F0914302808135
:100A0000E0914802F091490282FD12C090818091EC
:100A10004B028F5F8F7320914C02821751F0E0914F
:100A20004B02F0E0EE5CFD4F958F80934B0201C0CE
:100A30008081FF91EF919F918F912F910F900BBE2D
:100A40000F900FBE0F901F901895E2E3F2E0138213
:100A5000128288EE93E0A0E0B0E084839583A683C1
:100A6000B7838AE092E09183808385EC90E095875C
:100A7000848784EC90E09787868780EC90E0918B68
:100A8000808B81EC90E0938B828B82EC90E0958B55
:100A9000848B86EC90E0978B868B118E128E138E52
:100AA000148EEFECF2E087E090E09183808388E0A1
:100AB00090E093838283168280E28783108685E0AC
:100AC000868785E090E0A0E0B0E0848B958BA68BD4
:100AD000B78B11860895CF93DF9300D01F92CDB7C7
:100AE000DEB7789484B5826084BD84B5816084BDAE
:100AF00085B5826085BD85B5816085BD80916E00BC
:100B0000816080936E0010928100809181008260EC
:100B10008093810080918100816080938100809129
:100B200080008160809380008091B1008460809318
:100B3000B1008091B00081608093B00080919100FD
:100B400082608093910080919100816080939100F8
:100B5000809190008160809390008091A1008260DC
:100B60008093A1008091A10081608093A100809179
:100B7000A00081608093A000809121018260809319
:100B800021018091210181608093210180912001C8
:100B900081608093200180917A00846080937A0044
:100BA00080917A00826080937A0080917A008160DF
:100BB00080937A0080917A00806880937A00109206
:100BC000C1008CE00E947001E0914202F09143026A
:100BD00082E08083E0913E02F0913F021082E0913A
:100BE0004002F09141028FEC808310924A02E09122
:100BF0004602F091470286E08083E0914402F09142
:100C00004502808180618083E0914402F091450239
:100C1000808188608083E0914402F0914502808168
:100C200080688083E0914402F091450280818F7D4D
:100C300080838091CF029091D0022091D102309197
:100C4000D2028217930711F00E9470018091D102A5
:100C50009091D2022091CF023091D002281739070B
:100C600011F00E9470011FB7F89480912802811141
:100C700024C0E1E2F2E08491E7E6F2E09491E82F0B
:100C8000F0E0EE0FFF1FEE52FE4FA591B491EC91F4
:100C9000E92321F461E085E30E948F0185E30E944E
:100CA00070018CB580618CBD8CB580648CBD84E393
:100CB0000E94700183E30E947001809128028F5F7F
:100CC000809328021FBF80E00E940C0281E00E94F6
:100CD000C3030E944C026CE080E00E94FA036FE5BF
:100CE00084E00E94FA0386E00E94E003877D182FCB
:100CF00010628BE990E0A0E0B0E08093DF02909377
:100D0000E002A093E102B093E202612F86E00E942C
:100D1000FA0386E00E94E003811709F4E4C186E04B
:100D20000E94E00386E00E94E00345E550E060E0B9
:100D300070E04093DF025093E0026093E102709311
:100D4000E202682F677D86E00E94FA0386E00E9437
:100D5000E0030E94DD0380E50E94BC0383E70E945C
:100D6000BC0381E00E94C30360E08DE10E94FA03AE
:100D700060E08CE10E94FA031092D70260E787E0FE
:100D80000E94FA036CE485E00E94FA030E94DD03EE
:100D900082EE0E94BC0381E00E94C3030E941904FA
:100DA00080E00E94E00381FD07C0682F626080E060
:100DB0000E94FA030E944C0280E00E94E003682F28
:100DC0006E7F80E00E94FA03D090DD020E94DD0376
:100DD0008AE20E94BC0300E012E07801C02ED00E2F
:100DE000DE1431F0F70181917F010E94BC03F8CF3E
:100DF00081E00E94C303F090DD020E94DD0380E3E6
:100E00000E94BC03FC0CF01631F0F80181918F01B7
:100E10000E94BC03F8CF81E00E94C3036091D60218
:100E200081E10E94FA0386E00E94E003887F682F38
:100E3000616086E00E94FA032CE6222E21E0322E29
:100E400001E010E00E944C0280E00E940C028091C0
:100E5000DF029091E0020E941C028DE10E94E003FB
:100E600081FF08C08091DF029091E0020E941C0285
:100E70000E94190480E00E94E003682F6E7F80E0EA
:100E80000E94FA0382E00E94E003F101949198012C
:100E900001C0220F9A95EAF7682F622B82E00E9428
:100EA000FA0380917B00877F80937B00F0E4F093CE
:100EB0007C0080917A00806480937A0080917A002F
:100EC00086FDFCCF609178008091790070E0782BEE
:100ED000072E000C880B990B0E941A092AE038E2B1
:100EE00040EA5BE30E94CF096B017C014B015C018E
:100EF00069837A838B839C839B01AC010E943C0AAB
:100F0000882319F088E192E01AC026013701E8949D
:100F100077F82FEF3FEF4FE75FE7C301B2010E9481
:100F20003C0A81110FC02FEF3FEF4FE75FE7C3018E
:100F3000B2010E94E40818162CF48CE192E00E94A1
:100F4000260484C02FEF3FEF4FE75FE4C701B601EF
:100F50000E94CA0918161CF480E292E0F0CF2FEF2D
:100F60003FEF4FE75FECC701B6010E94E40887FD41
:100F7000F3CF20E030E0A901C701B6010E94E408E8
:100F800087FF11C0E0913202F09133020190F081AD
:100F9000E02D6DE282E392E0199546015701B7FA20
:100FA000B094B7F8B0942AE037ED43EA5BE3C501AB
:100FB000B4010E9478084B015C010E94E9086B01B2
:100FC0007C010E9418099B01AC01C501B4010E947B
:100FD00077084B015C014AE0C701B6010E94380462
:100FE000E0913202F09133020190F081E02D6EE247
:100FF00082E392E0199520E030E040E251E4C5013F
:10100000B4010E94CF094B015C010E94E9086B0109
:10101000E12CF12C4AE0C701B6010E943804C70157
:10102000B6010E9418099B01AC01C501B4010E94E0
:10103000770820E030E040E251E40E94CF090E94AE
:10104000E90880E090E04AE00E94380484E292E0FF
:101050000E9426048091D602E82E853010F094E09C
:10106000E92E9091D702911103C0F82EFE1801C00D
:10107000F12C0E94DD0380EA0E94BC03CE010196A0
:101080006C01EA94FFEFEF1631F0F60181916F01E8
:101090000E94BC03F6CFFF2029F080E00E94BC0331
:1010A000FA94F9CF81E00E94C30381E00E940C0210
:1010B0000E94DD038FEF0E94BC03F82E81E00E94A6
:1010C000C3038F2D8073A1F380E00E940C0260E7C0
:1010D00087E00E94FA0384FD0E9419040E944C02DA
:1010E0000E948303AFCE81E08093D50218CE505882
:1010F000BB27AA270E948F080C9490090E9482099E
:1011000038F00E94890920F039F49F3F19F426F441
:101110000C947F090EF4E095E7FB0C947909E92F14
:101120000E94A10958F3BA1762077307840795074D
:1011300020F079F4A6F50C94C3090EF4E0950B2E7B
:10114000BA2FA02D0B01B90190010C01CA01A00119
:101150001124FF27591B99F0593F50F4503E68F174
:101160001A16F040A22F232F342F4427585FF3CFB5
:10117000469537952795A795F0405395C9F77EF486
:101180001F16BA0B620B730B840BBAF09150A1F0CF
:10119000FF0FBB1F661F771F881FC2F70EC0BA0F55
:1011A000621F731F841F48F4879577956795B795DD
:1011B000F7959E3F08F0B0CF9395880F08F09927D8
:1011C000EE0F9795879508950E94550908F481E0E0
:1011D00008950E94A90988F09F5798F0B92F992780
:1011E000B751B0F0E1F0660F771F881F991F1AF012
:1011F000BA95C9F714C0B13091F00E94C309B1E0AB
:1012000008950C94C309672F782F8827B85F39F0A9
:10121000B93FCCF3869577956795B395D9F73EF4AA
:1012200090958095709561957F4F8F4F9F4F089552
:10123000E89409C097FB3EF4909580957095619570
:101240007F4F8F4F9F4F9923A9F0F92F96E9BB2726
:101250009395F695879577956795B795F111F8CFA2
:10126000FAF4BB0F11F460FF1BC06F5F7F4F8F4F0D
:101270009F4F16C0882311F096E911C0772321F003
:101280009EE8872F762F05C0662371F096E8862F9B
:1012900070E060E02AF09A95660F771F881FDAF7F2
:1012A000880F9695879597F90895990F0008550F1F
:1012B000AA0BE0E8FEEF16161706E807F907C0F0DC
:1012C00012161306E407F50798F0621B730B840BE4
:1012D000950B39F40A2661F0232B242B252B21F4BE
:1012E00008950A2609F4A140A6958FEF811D811D5E
:1012F000089597F99F6780E870E060E008959FEF98
:1013000080EC089500240A9416161706180609069C
:10131000089500240A94121613061406050608956B
:10132000092E0394000C11F4882352F0BB0F40F4F3
:10133000BF2B11F460FF04C06F5F7F4F8F4F9F4F33
:10134000089557FD9058440F551F59F05F3F71F0B5
:101350004795880F97FB991F61F09F3F79F087951C
:101360000895121613061406551FF2CF4695F1DFA5
:1013700008C0161617061806991FF1CF8695710535
:10138000610508940895E894BB2766277727CB0169
:1013900097F908950E94550908F48FEF08950E9467
:1013A000E2090C9490090E94820938F00E94890990
:1013B00020F0952311F00C9479090C947F091124E5
:1013C0000C94C4090E94A10970F3959FC1F3950F75
:1013D00050E0551F629FF001729FBB27F00DB11DB9
:1013E000639FAA27F00DB11DAA1F649F6627B00D49
:1013F000A11D661F829F2227B00DA11D621F739F32
:10140000B00DA11D621F839FA00D611D221F749F3F
:101410003327A00D611D231F849F600D211D822F86
:10142000762F6A2F11249F5750409AF0F1F08823AD
:101430004AF0EE0FFF1FBB1F661F771F881F9150DA
:101440005040A9F79E3F510580F00C9479090C9407
:10145000C4095F3FE4F3983ED4F38695779567958A
:10146000B795F795E7959F5FC1F7FE2B880F911D04
:101470009695879597F908950E945509880B990BC1
:101480000895A1E21A2EAA1BBB1BFD010DC0AA1FC5
:10149000BB1FEE1FFF1FA217B307E407F50720F0DD
:1014A000A21BB30BE40BF50B661F771F881F991F58
:1014B0001A9469F760957095809590959B01AC01A1
:1014C000BD01CF010895EE0FFF1F881F8BBF07904E
:1014D000F691E02D199481E090E0F8940C94700A54
:0414E000F894FFCFAE
:1014E400303030303100000000001A038302B202B1
:1014F4006103E302C102D5026E616E00696E66008B
:081504006F7666000D0A00007D
:00000001FF
