:100000000C9460000C9488000C9488000C94880078
:100010000C9488000C9488000C9488000C94880040
:100020000C9488000C9488000C9488000C94880030
:100030000C9488000C9488000C9488000C94880020
:100040000C94E1020C9488000C9451030C942B0343
:100050000C9488000C9488000C9488000C94880000
:100060000C9488000C948800000102030405000031
:100070000008000201000003040700000000000067
:10008000000000000000250028002B0000000000F8
:10009000240027002A0004040404040404040202C7
:1000A00002020202030303030303010204081020F7
:1000B000408001020408102001020408102083037C
:1000C00011241FBECFEFD8E0DEBFCDBF21E0A8E1F5
:1000D000B1E001C01D92A73DB207E1F711E0A0E039
:1000E000B1E0EEEBFBE002C005900D92A831B10744
:1000F000D9F710E0C0E6D0E004C02197FE010E94CD
:10010000D205CF35D107C9F70E94C9030C94DD058C
:100110000C94000090E0FC01E655FF4F2491FC0197
:10012000EA56FF4F8491882399F090E0880F991F39
:10013000FC01E457FF4FA591B491FC01EE57FF4F2E
:10014000859194918FB7F894EC91E22BEC938FBF4B
:10015000089590E0FC01E259FF4F3491FC01E6550F
:10016000FF4F2491FC01EA56FF4FE491EE2309F47E
:100170003BC0332339F1333091F038F43130A9F0FA
:10018000323001F584B58F7D12C0373091F03830B0
:10019000A1F03430B9F4809180008F7D03C080914C
:1001A00080008F77809380000DC084B58F7784BDE9
:1001B00009C08091B0008F7703C08091B0008F7D1F
:1001C0008093B000F0E0EE0FFF1FEE57FF4FA591B8
:1001D000B4918FB7F894EC91611103C020952E2350
:1001E00001C02E2B2C938FBF08952091BF01309119
:1001F000C0014091C1015091C2012417350721F07F
:10020000682F822F0C94A90008958230910538F050
:10021000880F991F880F991F05970197F1F7089587
:100220003FB7F89480911E0190911F01A091200189
:10023000B091210126B5A89B05C02F3F19F001966A
:10024000A11DB11D3FBFBA2FA92F982F8827820F5C
:10025000911DA11DB11DBC01CD0142E0660F771FAC
:10026000881F991F4A95D1F708958F929F92AF9258
:10027000BF92CF92DF92EF92FF920E9410014B014A
:100280005C0185E0C82ED12CE12CF12C0E941001DC
:10029000DC01CB0188199909AA09BB09883E934062
:1002A000A105B10558F021E0C21AD108E108F10812
:1002B00088EE880E83E0981EA11CB11CC114D104E5
:1002C000E104F10419F7FF90EF90DF90CF90BF9019
:1002D000AF909F908F900895CF92DF92EF92FF9210
:1002E0000F931F93CF93DF936C017A018B01C0E0D2
:1002F000D0E0CE15DF0589F0D8016D918D01D601D2
:10030000ED91FC910190F081E02DC6010995892BBA
:1003100011F47E0102C02196ECCFC701DF91CF918D
:100320001F910F91FF90EF90DF90CF900895089567
:1003300080E090E00895FC01538D448D252F30E03E
:10034000842F90E0821B930B541710F0CF960895E2
:1003500001970895FC01918D828D981761F0828D2F
:10036000DF01A80FB11D5D968C91928D9F5F9F73E9
:10037000928F90E008958FEF9FEF0895FC01918D8B
:10038000828D981731F0828DE80FF11D858D90E0F8
:1003900008958FEF9FEF0895FC01918D228D892F95
:1003A00090E0805C9F4F821B91098F73992708957D
:1003B00082E291E00E94CC0121E0892B09F420E047
:1003C000822F0895FC01848DDF01A80FB11DA35A6F
:1003D000BF4F2C91848D90E001968F739927848F65
:1003E000A689B7892C93A089B1898C9180648C935C
:1003F000938D848D981306C00288F389E02D808147
:100400008F7D80830895EF92FF920F931F93CF9378
:10041000DF93EC0181E0888F9B8D8C8D981305C054
:10042000E889F989808185FD24C0F62E0B8D10E0C6
:100430000F5F1F4F0F731127E02E8C8DE8120CC039
:100440000FB607FCFACFE889F989808185FFF5CFDF
:10045000CE010E94E201F1CF8B8DFE01E80FF11D6C
:10046000E35AFF4FF0820B8FEA89FB89808180621B
:1004700007C0EE89FF896083E889F98980818064FB
:10048000808381E090E0DF91CF911F910F91FF90E9
:10049000EF900895CF93DF93EC01888D8823C9F006
:1004A000EA89FB89808185FD05C0A889B9898C917D
:1004B00086FD0FC00FB607FCF5CF808185FFF2CF18
:1004C000A889B9898C9185FFEDCFCE010E94E20108
:1004D000E7CFDF91CF91089580E090E0892B29F05C
:1004E0000E94D80181110C94000008958EBD000077
:1004F0000DB407FEFDCF8EB50895CF93DF939CB565
:100500009F7D9CBD9CB5937F9CBD9CB59C7F9CBDF5
:100510009DB591609DBDCFEBD1E0682F8A810E948F
:10052000A9008C899D89DF91CF910C94050180E011
:100530000C947D021F93CF93DF931F92CDB7DEB74C
:1005400089830E94970289818F710E9476028FEFC2
:100550000E947602182F81E00E947D02812F0F9069
:10056000DF91CF911F9108951F93CF93DF9300D018
:10057000CDB7DEB76A8389830E94970289818F7124
:1005800080620E947602182F6A81862F0E9476026E
:1005900081E00E947D02812F0F900F90DF91CF911B
:1005A0001F910895CF930E94970281EE0E947602D8
:1005B000C82F81E00E947D028C2FCF9108950E9468
:1005C000D8051F920F920FB60F9211242F933F93CD
:1005D0008F939F93AF93BF9380911A0190911B01CA
:1005E000A0911C01B0911D013091190123E0230F4E
:1005F0002D3720F40196A11DB11D05C026E8230F5B
:100600000296A11DB11D2093190180931A019093A8
:100610001B01A0931C01B0931D0180911E019091BC
:100620001F01A0912001B09121010196A11DB11DD2
:1006300080931E0190931F01A0932001B09321018C
:10064000BF91AF919F918F913F912F910F900FBECE
:100650000F901F9018951F920F920FB60F921124B2
:100660002F933F934F935F936F937F938F939F93BA
:10067000AF93BF93EF93FF9382E291E00E94E20178
:10068000FF91EF91BF91AF919F918F917F916F916A
:100690005F914F913F912F910F900FBE0F901F9040
:1006A00018951F920F920FB60F9211242F938F93CC
:1006B0009F93EF93FF93E0913201F091330180819A
:1006C000E0913801F091390182FD12C09081809152
:1006D0003B018F5F8F7320913C01821751F0E091B5
:1006E0003B01F0E0EE5DFE4F958F80933B0101C032
:1006F0008081FF91EF919F918F912F910F900FBE6D
:100700000F901F901895E2E2F1E01382128288EEBA
:1007100093E0A0E0B0E084839583A683B7838AE06A
:1007200091E09183808385EC90E09587848784ECC9
:1007300090E09787868780EC90E0918B808B81ECAE
:1007400090E0938B828B82EC90E0958B848B86EC8F
:1007500090E0978B868B118E128E138E148EEFEB9A
:10076000F1E087E090E09183808388E090E09383DC
:100770008283168280E28783108685E0868785E003
:1007800090E0A0E0B0E0848B958BA68BB78B1186B0
:100790000895CF93DF9300D000D000D0CDB7DEB75F
:1007A000789484B5826084BD84B5816084BD85B54C
:1007B000826085BD85B5816085BD80916E00816058
:1007C00080936E00109281008091810082608093FE
:1007D0008100809181008160809381008091800000
:1007E0008160809380008091B10084608093B1002B
:1007F0008091B00081608093B00080917A00846025
:1008000080937A0080917A00826080937A00809150
:100810007A00816080937A0080917A00806880936A
:100820007A001092C100E0913201F091330182E030
:100830008083E0912E01F0912F011082E091300130
:10084000F09131018FEC808310923A01E0913601F2
:10085000F091370186E08083E0913401F091350119
:10086000808180618083E0913401F0913501808145
:1008700088608083E0913401F09135018081806847
:100880008083E0913401F091350180818F7D8083F8
:100890008091BF019091C0012091C1013091C201AE
:1008A0008217930711F00E948A008091C1019091F4
:1008B000C2012091BF013091C0012817390711F002
:1008C0000E948A001FB7F89480911801811124C0FA
:1008D000E0EAF0E08491E4EBF0E09491E82FF0E0BE
:1008E000EE0FFF1FE457FF4FA591B491EC91E92360
:1008F00021F461E08AE00E94A9008AE00E948A0057
:100900008CB580618CBD8CB580648CBD8DE00E94FF
:100910008A008BE00E948A00809118018F5F80938B
:1009200018011FBF80E00E94F50081E00E947D0257
:100930000E9435016CE080E00E94B4026FE584E023
:100940000E94B40286E00E949A02877D182F1062EE
:100950008BE990E0A0E0B0E08093CF019093D001CC
:10096000A093D101B093D201612F86E00E94B4021E
:1009700086E00E949A02811709F410C186E00E9465
:100980009A0286E00E949A0245E550E060E070E03D
:100990004093CF015093D0016093D1017093D20165
:1009A000682F677D86E00E94B40286E00E949A026A
:1009B0000E94970280E50E94760283E70E947602F9
:1009C00081E00E947D0260E08DE10E94B40260E05F
:1009D0008CE10E94B4021092C70160E787E00E9498
:1009E000B4026CE485E00E94B4020E94970282EE99
:1009F0000E94760281E00E947D020E94D20280E085
:100A00000E949A0281FD07C0682F626080E00E9408
:100A1000B4020E94350180E00E949A02682F6E7F26
:100A200080E00E94B402D090CD010E9497028AE239
:100A30000E94760200E011E07801C02ED00EDE1494
:100A400031F0F70181917F010E947602F8CF81E0B9
:100A50000E947D02F090CD010E94970280E30E94E7
:100A60007602FC0CF01631F0F80181918F010E94A2
:100A70007602F8CF81E00E947D026091C60181E19B
:100A80000E94B40286E00E949A02887F682F61600B
:100A900086E00E94B40280E00E94F5008091CF01C0
:100AA0009091D0010E9405018DE10E949A0281FF80
:100AB00008C08091CF019091D0010E9405010E9451
:100AC000D20280E00E949A02682F6E7F80E00E942E
:100AD000B40282E00E949A02E8E6F0E0E49161E06C
:100AE00070E001C0660FEA95EAF7682B82E00E9489
:100AF000B402E12CF12CFA82E982FC82EB82FE82C4
:100B0000ED821091C601012F173008F006E08091A8
:100B1000C701811102C0101B01C010E00E949702A2
:100B200080EA0E947602CE0101966C01015030F0FD
:100B3000F60181916F010E947602F8CF112329F00E
:100B400080E00E9476021150F9CF81E00E947D0280
:100B500081E00E94F5000E9497028FEF0E947602CA
:100B6000182F81E00E947D021073A9F380E00E949B
:100B7000F50060E787E00E94B40284FD0E94D20283
:100B8000FFEFEF1AFF0A88E8E81683E1F80609F09C
:100B9000B2CF0E9435010E946C02ABCF81E08093FE
:100BA000C501ECCEEE0FFF1F0590F491E02D0994E6
:0E0BB00081E090E0F8940C94DD05F894FFCFFE
:100BBE003030303031000000000003026C019B0128
:080BCE004A02CC01AA01BE019C
:00000001FF
