:100000000C943B010C946C010C946C010C946C01ED
:100010000C946C010C946C010C946C010C946C01AC
:100020000C946C010C946C010C946C010C946C019C
:100030000C946C010C946C010C946C010C946C018C
:100040000C946C010C946C010C946C010C946C017C
:100050000C946C010C946C010C946C010C941105C3
:100060000C946C010C9485050C945B050C946C014C
:100070000C946C010C946C010C946C010C946C014C
:100080000C946C010C946C010C946C010C946C013C
:100090000C946C010C946C010C946C010C94BB05D9
:1000A0000C946C010C946C010C946C010C946C011C
:1000B0000C946C010C946C010C946C010C946C010C
:1000C0000C946C010C946C010C946C010C946C01FC
:1000D0000C946C010C946C010C946C010C946C01EC
:1000E0000C946C013D0240022F023302370277026A
:1000F000440248024E02520256025C02600264024E
:1001000077026A026E0272020C944D040C94CB03C7
:100110000C94C0020C946A020C943D020C944802A8
:100120000C9452020C94DF030C94BC030C944E020A
:100130000C946E020C94B1020C9486020C94BB03D6
:100140000C94E2020C942F020C94E8030C947702B6
:100150000C9440020C9460030C941D040C94330224
:100160000C945C020C9472020C9464020C94600275
:100170000C94D4020C9419030C94ED060C945602C2
:100180000C9437020C944402000022002500280041
:100190002B002E003100340002010000050108018F
:1001A0000B010505050507050808080802020202FB
:1001B0000A0A080804040404010101010101010103
:1001C0000303030303030303040707070C0C0C0CCE
:1001D0000C0C0C0C020202020606060606060606B7
:1001E0000B0B0B0B0B0B0B0B010210202008081044
:1001F0002040102040800201020108040201010297
:10020000040810204080804020100804020180046F
:1002100002018040201008040201080402010102CA
:1002200004081020408001020408102040800000D3
:100230000A0B02090C0D0E08070304010000000060
:1002400000000000000000000000000000000000AE
:10025000000000000000000000001211100000006B
:10026000000000000000000000000000000000008E
:1002700000000000ED0611241FBECFEFD1E2DEBF6B
:10028000CDBF00E00CBF13E0A0E0B2E0E6E0F2E199
:1002900000E00BBF02C007900D92A230B107D9F762
:1002A00024E0A2E0B3E001C01D92AA36B207E1F754
:1002B00011E0CBE3D1E000E006C021970109802FD7
:1002C000FE010E94F408CA33D10780E00807A9F7AD
:1002D0000E9428070C9401090C9400009091BE0321
:1002E0009111FCCF91E09093BE039093BD032FEF4B
:1002F0002093BC031092BB03260F2093BA03909364
:10030000B9039091B903880F892B8093B903809129
:10031000B803813061F41092B8038091B9038093DF
:10032000BB008091BC0083FDF8CF85EC01C085EE59
:100330008093BC008091BE038130E1F38091BB03C8
:10034000861710F46091BB03A8E9B3E028E733E017
:10035000F9018E2F821B861718F48D918193F9CFA6
:10036000862F0895382F20917703909176032132BC
:1003700008F049C08091BE038111FCCF42E0409358
:10038000BE033093BD033FEF3093BC031092BB0319
:100390002093BA03A6E5B3E048E953E0FA013E2F03
:1003A000341B321718F43D913193F9CF1092B903F1
:1003B0002091B903990F922B9093B9039091B803B0
:1003C000913061F41092B8039091B9039093BB00FF
:1003D0009091BC0093FDF8CF95EC01C095EE909301
:1003E000BC009091BE039230E1F39091BC039F3F1B
:1003F00079F08091BC03803241F08091BC0380335E
:1004000031F084E005C081E003C082E001C083E0F8
:10041000109255031092770310925403089590E0C0
:10042000FC01E25DFD4F4491FC01E851FE4F249137
:10043000FC01EE55FE4F9491992309F466C04423C4
:1004400009F455C050E0FA013197E231F10508F0A6
:100450004EC08827EE58FF4F8F4F0C94F4088091C0
:1004600080008F7707C0809180008F7D03C08091CE
:100470008000877F809380003AC084B58F7702C068
:1004800084B58F7D84BD33C08091B0008F7703C069
:100490008091B0008F7D8093B00029C08091900042
:1004A0008F7707C0809190008F7D03C0809190006E
:1004B000877F809390001BC08091A0008F7707C03A
:1004C0008091A0008F7D03C08091A000877F8093E2
:1004D000A0000DC0809120018F7707C0809120017E
:1004E0008F7D03C080912001877F80932001E92FB9
:1004F000F0E0EE0FFF1FE857FE4FA591B4918FB7C4
:10050000F894EC912E2B2C938FBF0895CF92DF920D
:10051000EF92FF920F931F93CF93DF936C017A01B9
:100520008B01C0E0D0E0CE15DF0589F0D8016D91D8
:100530008D01D601ED91FC910190F081E02DC60175
:100540001995892B11F47E0102C02196ECCFC701C9
:10055000DF91CF911F910F91FF90EF90DF90CF909F
:100560000895FC01538D448D252F30E0842F90E0B9
:10057000821B930B541710F0CF960895019708959E
:10058000FC01918D828D981761F0828DDF01A80F9B
:10059000B11D5D968C91928D9F5F9F73928F90E0BD
:1005A00008958FEF9FEF0895FC01918D828D98172C
:1005B00031F0828DE80FF11D858D90E008958FEF69
:1005C0009FEF0895FC01918D228D892F90E0805C32
:1005D0009F4F821B91098F73992708958FEB93E0AA
:1005E0000E94E20221E0892B09F420E0822F089585
:1005F000FC01848DDF01A80FB11DA35ABF4F2C91C0
:10060000848D90E001968F739927848FA689B7898E
:100610002C93A089B1898C9180648C93938D848D67
:10062000981306C00288F389E02D80818F7D808336
:100630000895EF92FF920F931F93CF93DF93EC01F6
:1006400081E0888F9B8D8C8D981305C0E889F9898E
:10065000808185FD24C0F62E0B8D10E00F5F1F4FAB
:100660000F731127E02E8C8DE8120CC00FB607FC1B
:10067000FACFE889F989808185FFF5CFCE010E9404
:10068000F802F1CF8B8DFE01E80FF11DE35AFF4F09
:10069000F0820B8FEA89FB898081806207C0EE8936
:1006A000FF896083E889F98980818064808381E0A3
:1006B00090E0DF91CF911F910F91FF90EF900895FF
:1006C000CF93DF93EC01888D8823C9F0EA89FB89F9
:1006D000808185FD05C0A889B9898C9186FD0FC0F0
:1006E0000FB607FCF5CF808185FFF2CFA889B989C5
:1006F0008C9185FFEDCFCE010E94F802E7CFDF910C
:10070000CF91089580E090E0892B21F00E94EE02C5
:10071000811125C080E090E0892B41F080E090E0DD
:10072000892B21F00E94000081111CC080E090E024
:10073000892B41F080E090E0892B21F00E9400009D
:10074000811113C080E090E0892BA1F080E090E05F
:10075000892B81F00E94000081110AC008950E9437
:100760000000D8CF0E940000E1CF0E940000EACF35
:100770000C94000008950895E09153038091520372
:10078000E81730F4F0E0E858FC4F808190E00895DD
:100790008FEF9FEF08959091530380915203981724
:1007A00050F4E92FF0E0E858FC4F208130E09F5FE3
:1007B0009093530302C02FEF3FEFC901089580913A
:1007C000520390E020915303821B910908950895EC
:1007D00080E090E0089585ED8093BC008091BC009E
:1007E00084FDFCCF1092BE03089540912403262F70
:1007F00030E0240F311D21323105DCF42091BE039D
:100800002430C9F4FC0180E090E0861758F4309160
:1008100024032191DC01AE5FBC4FA30FB11D2C93CB
:100820000196F3CF80912403680F6093240380E046
:10083000089581E0089582E00895CF92DF92EF92CB
:10084000FF920F931F93CF93DF937C01262F972F57
:100850008A0180915403882391F0C62FD72F6E010F
:10086000C40ED51ECC15DD0571F06991D701ED914F
:10087000FC910190F081E02DC7011995F3CF642F11
:10088000822F0E94F503C801DF91CF911F910F9134
:10089000FF90EF90DF90CF900895CF93DF931F925A
:1008A000CDB7DEB76983209154032223D1F0209184
:1008B0007703203240F021E030E0FC0133832283D3
:1008C00080E090E015C080915503E82FF0E0EA5AEF
:1008D000FC4F998190838F5F8093550380937703BA
:1008E00005C061E0CE0101960E94F50381E090E031
:1008F0000F90DF91CF910895682F8CE594E00C94D0
:100900004D04009769F0FC0101900020E9F7319750
:10091000AF01481B590BBC018FEB93E00C9486028E
:1009200080E090E008958F929F92AF92BF920F93D4
:100930001F93CF93DF93CDB7DEB7A1970FB6F8948F
:10094000DEBF0FBECDBF19A2423008F44AE08E01CF
:100950000F5D1F4F842E912CA12CB12CA501940169
:100960000E94D208E62FB901CA0101501109EA30EC
:1009700014F4E05D01C0E95CD801EC93232B242B37
:10098000252B61F7C8010E948104A1960FB6F89447
:10099000DEBF0FBECDBFDF91CF911F910F91BF90F2
:1009A000AF909F908F900895CF93DF930E94810422
:1009B000EC0189EB92E00E9481048C0F9D1FDF9176
:1009C000CF9108950F931F93CF93DF938C01C8E6C7
:1009D000D4E0888191E09093540380937603109241
:1009E000550310927703812F90E00E947C04C80188
:1009F00099270E947C0481E00E94B20161E0888115
:100A00000E946E0110925303809352038CE594E090
:100A10000E94CB03DF91CF911F910F9108950E9407
:100A2000FC081F920F920FB60F9211242F933F9341
:100A30008F939F93AF93BF9380914E0390914F03F9
:100A4000A0915003B091510330914D0323E0230F47
:100A50002D3720F40196A11DB11D05C026E8230FF6
:100A60000296A11DB11D20934D0380934E039093D8
:100A70004F03A0935003B093510380914903909189
:100A80004A03A0914B03B0914C030196A11DB11DE7
:100A90008093490390934A03A0934B03B0934C0374
:100AA000BF91AF919F918F913F912F910F900FBE6A
:100AB0000F901F9018951F920F920FB60F9211244E
:100AC0000BB60F922F933F934F935F936F937F9348
:100AD0008F939F93AF93BF93EF93FF938FEB93E02D
:100AE0000E94F802FF91EF91BF91AF919F918F917A
:100AF0007F916F915F914F913F912F910F900BBE1E
:100B00000F900FBE0F901F9018951F920F920FB667
:100B10000F9211240BB60F922F938F939F93EF9305
:100B2000FF93E091CF03F091D0038081E091D50352
:100B3000F091D60382FD12C090818091D8038F5F1F
:100B40008F732091D903821751F0E091D803F0E020
:100B5000E154FC4F958F8093D80301C08081FF91B1
:100B6000EF919F918F912F910F900BBE0F900FBE21
:100B70000F901F9018951F920F920FB60F9211248D
:100B80000BB60F922F933F934F935F936F937F9387
:100B90008F939F93AF93BF93EF93FF938091B9008F
:100BA000887F803609F49CC068F5883209F45BC000
:100BB00090F4803109F454C038F4882309F4F6C065
:100BC000883009F44DC0F6C0883109F44CC0803239
:100BD00009F45DC0EFC0803409F468C048F4803384
:100BE00009F455C0883309F0E5C08093BC03D8C030
:100BF000803509F44FC0883509F45DC0883409F0A8
:100C0000D9C0D6C0883909F4C7C0A8F4883709F418
:100C100067C038F4883609F463C0803709F460C0CF
:100C2000C9C0883809F4B8C0803909F45FC0803879
:100C300009F0C0C05BC0803B09F486C038F4803A3C
:100C400009F466C0883A09F47FC0B4C0803C09F456
:100C5000A7C0883C09F4A4C0883B09F48AC0AAC094
:100C60008091B90310C09091BB038091BA0398178B
:100C700070F5E091BB0381E08E0F8093BB03F0E041
:100C8000E856FC4F80818093BB0085EC86C0809342
:100C9000BC038EC0E091BB0381E08E0F8093BB0349
:100CA0008091BB00F0E0E856FC4F80839091BB033D
:100CB0008091BA036EC0E091BB0381E08E0F8093F8
:100CC000BB038091BB00F0E0E856FC4F808380912D
:100CD000BD0381116DC081E08093B80384EA61C0D7
:100CE00083E08093BE0310924803CFCF80914803E6
:100CF000803208F051C0E091480381E08E0F80936C
:100D000048038091BB00F0E0E85DFC4F8083BDCFDD
:100D100085EC8093BC001092BE0380914803803222
:100D200030F4E0914803F0E0E85DFC4F1082609100
:100D3000480370E0E0912603F091270388E293E0F6
:100D400019951092480336C084E08093BE03109238
:100D5000250310922403E0912203F09123031995B7
:100D600080912403811105C081E0809324031092B7
:100D70000203E091250381E08E0F80932503F0E0CC
:100D8000EE5FFC4F80818093BB00909125038091A2
:100D90002403981708F479CF85E88093BC000AC033
:100DA00085EC8093BC001092BE0304C01092BC037B
:100DB0000E94EB03FF91EF91BF91AF919F918F91B3
:100DC0007F916F915F914F913F912F910F900BBE4B
:100DD0000F900FBE0F901F901895EFEBF3E013826A
:100DE000128288EE93E0A0E0B0E084839583A6832E
:100DF000B78324E032E03183208325EC30E035876F
:100E0000248724EC30E03787268720EC30E0318BD4
:100E1000208B21EC30E0338B228B22EC30E0358BC1
:100E2000248B26EC30E0378B268B118E128E138E9E
:100E3000148EECE5F4E01382128284839583A683FA
:100E4000B78386E192E091838083109269040895CC
:100E5000789484B5826084BD84B5816084BD85B595
:100E6000826085BD85B5816085BD80916E008160A1
:100E700080936E0010928100809181008260809347
:100E80008100809181008160809381008091800049
:100E90008160809380008091B10084608093B10074
:100EA0008091B00081608093B00080919100826059
:100EB0008093910080919100816080939100809156
:100EC00090008160809390008091A1008260809367
:100ED000A1008091A10081608093A1008091A00079
:100EE00081608093A0008091210182608093210124
:100EF0008091210181608093210180912001816096
:100F00008093200180917A00846080937A008091A0
:100F10007A00826080937A0080917A008160809369
:100F20007A0080917A00806880937A001092C100E4
:100F3000E091CF03F091D00382E08083E091CB0376
:100F4000F091CC031082E091CD03F091CE038FECB1
:100F500080831092D703E091D303F091D40386E00D
:100F60008083E091D103F091D203808180618083FE
:100F7000E091D103F091D203808188608083E09179
:100F8000D103F091D203808180688083E091D10306
:100F9000F091D20380818F7D808380E58093680407
:100FA000109253031092520310925503109277033C
:100FB0001092BE03FF24F394F092BD031092B80385
:100FC00084E10E940F0285E10E940F028091B90026
:100FD0008E7F8093B9008091B9008D7F8093B90096
:100FE00088E48093B80085E48093BC00F0925403B9
:100FF0008CE78093760310925503109277036091EB
:10100000680470E0660F771F8CE594E00E944D0441
:1010100080E00E94B20163E08CE70E946E011092B2
:101020005303809352038CE594E00E94CB038C0120
:101030008CE594E00E94CB03EC018CE594E00E94E7
:10104000CB031127B80194E0660F771F9A95E1F75B
:101050009E01332744E0359527954A95E1F78B01AA
:10106000020F131FCF70D0E0DC2FCC27C80FD11D8B
:101070000A30110549F084E292E00E948104B8012F
:10108000110F880B990B0CC0C03185E0D807B1F067
:1010900083E492E00E948104BE01DD0F880B990B6E
:1010A00040E10E94930489EB92E00E94810486E86B
:1010B00092E00E94D4048CEB92E004C0F0926904A8
:1010C0008DE592E00E94D40480E090E00E94E2046A
:1010D000C82F8CE692E00E9481046C2F70E080E0C3
:1010E00090E04AE00E94930487E792E00E94D404D3
:1010F0008091680491E0909354038093760310925A
:1011000055031092770380E090E00E947C0480E019
:1011100090E00E947C0461E06C0F8CE594E00E94FA
:101120004D0481E00E94B201C0E0D0E0D7FD37C09D
:10113000CE010E94E204182FCE018F719927892BCE
:1011400081F48EE792E00E948104CE01A0E0B0E03D
:1011500040E1BC01CD010E94930483E892E00E942B
:10116000810480E892E00E94810411110BC0E0919B
:10117000BF03F091C0030190F081E02D60E38FEB9D
:1011800093E01995612F70E080E090E040E10E94CB
:10119000930484E892E00E9481042196C7CF0E94C4
:1011A0008203FDCFA1E21A2EAA1BBB1BFD010DC0BD
:1011B000AA1FBB1FEE1FFF1FA217B307E407F50707
:1011C00020F0A21BB30BE40BF50B661F771F881FE3
:1011D000991F1A9469F760957095809590959B0179
:1011E000AC01BD01CF010895EE0FFF1F881F8BBF1B
:1011F0000790F691E02D199481E090E0F8940C941A
:061200000109F894FFCF84
:101206000000000019038602B1026003E202C00278
:10121600D402000000004D041D04E803BB03DF03F5
:10122600CB03BC03556E6578706563746564204DA9
:10123600616E7566616374757265722049443A2001
:10124600307800556E6578706563746564205072F9
:101256006F647563742049443A20307800466F7590
:101266006E6420493243204652414D0052657374E4
:10127600617274656420002074696D6573000A20CC
:101286003078003A2000493243204652414D206EC4
:101296006F74206964656E746966696564202E2EB4
:1012A6002E20636865636B20796F757220636F6E9D
:1012B6006E656374696F6E733F0D0A0057696C6CD7
:1012C60020636F6E74696E756520696E2063617345
:1012D6006520746869732070726F636573736F72CB
:1012E60020646F65736E277420737570706F7274E7
:1012F6002072657065617465642073746172740D23
:021306000A00DB
:00000001FF
