:100000000C942F010C9460010C9460010C9460011D
:100010000C9460010C9460010C9460010C946001DC
:100020000C9460010C9460010C9460010C946001CC
:100030000C9460010C9460010C9460010C946001BC
:100040000C9460010C9460010C9460010C946001AC
:100050000C9460010C9460010C9460010C94E20219
:100060000C9460010C9460010C9460010C9460018C
:100070000C9460010C9460010C9460010C9460017C
:100080000C9460010C9460010C9460010C9460016C
:100090000C9460010C9460010C9460010C9460015C
:1000A0000C9460010C9460010C9460010C9460014C
:1000B0000C9460010C9460010C9460010C9460013C
:1000C0000C9460010C9460010C9460010C9460012C
:1000D0000C9460010C9460010C9460010C9460011C
:1000E0000C946001B001B301A201A601AA01EA01CA
:1000F000B701BB01C101C501C901CF01D301D701BE
:10010000EA01DD01E101E5010C94B7010C94D30192
:100110000C94CF010C94D7010C94DD010C94AA012E
:100120000C94C5010C94B0010C94C1010C94C9014C
:100130000C94E5010C94E1010C943E050C94BB0178
:100140000C94A2010C94B3010C94EA010C94A60146
:1001500000010203040500000A0B02090C0D0E0841
:100160000703040100000000000000000000000080
:10017000000000000000000000000000000000007F
:10018000000012111000000000000000000000003C
:10019000000000000000000000000000000022003D
:1001A000250028002B002E00310034000201000041
:1001B000050108010B0100002100240027002A008E
:1001C0002D003000330001010000040107010A0185
:1001D00005050505070508080808020202020A0AC3
:1001E00008080404040401010101010101010303E1
:1001F000030303030303040707070C0C0C0C0C0C8C
:100200000C0C0202020206060606060606060B0B88
:100210000B0B0B0B0B0B01021020200808102040C9
:1002200010204080020102010804020101020408BA
:100230001020408080402010080402018004020148
:100240008040201008040201080402010102040891
:100250001020408001020408102040803E05112437
:100260001FBECFEFD1E2DEBFCDBF00E00CBF22E06A
:10027000A2E1B2E001C01D92A433B207E1F712E09F
:10028000A0E0B2E0E4ECFAE000E00BBF02C00790AF
:100290000D92A231B107D9F711E0CFE2D1E000E031
:1002A00006C021970109802FFE010E945805CE3219
:1002B000D10780E00807A9F70E942C030C94600581
:1002C0000C94000090E0FC01EA5EFD4F2491FC01DB
:1002D000E053FE4F8491882399F090E0880F991F96
:1002E000FC01EA54FE4FA591B491FC01E456FE4F87
:1002F000859194918FB7F894EC91E22BEC938FBF9A
:100300000895362F90E0FC01EA5AFE4F4491FC011B
:10031000EA5EFD4F2491FC01E053FE4F9491992336
:1003200009F46BC0442309F455C050E0FA01319739
:10033000E231F10508F04EC08827EE58FF4F8F4F8D
:100340000C945805809180008F7707C080918000C1
:100350008F7D03C080918000877F809380003AC0AA
:1003600084B58F7702C084B58F7D84BD33C0809102
:10037000B0008F7703C08091B0008F7D8093B00074
:1003800029C0809190008F7707C0809190008F7D69
:1003900003C080919000877F809390001BC0809164
:1003A000A0008F7707C08091A0008F7D03C080914F
:1003B000A000877F8093A0000DC0809120018F77DF
:1003C00007C0809120018F7D03C080912001877F2D
:1003D00080932001E92FF0E0EE0FFF1FE456FE4F5F
:1003E000A591B4918FB7F894EC91311103C0209589
:1003F0002E2301C02E2B2C938FBF089520911C0219
:1004000030911D0240911E0250911F0224173507A2
:1004100021F0682F822F0C9481010895823091057C
:1004200038F0880F991F880F991F05970197F1F7EA
:1004300008953FB7F8948091180290911902A09105
:100440001A02B0911B0226B5A89B05C02F3F19F0D8
:100450000196A11DB11D3FBFBA2FA92F982F882744
:10046000820F911DA11DB11DBC01CD0142E0660F9F
:10047000771F881F991F4A95D1F708958F929F92F1
:10048000AF92BF92CF92DF92EF92FF926B017C010D
:100490000E9419024B015C01C114D104E104F10472
:1004A000F1F00E941902DC01CB0188199909AA090F
:1004B000BB09883E9340A105B10570F321E0C21A43
:1004C000D108E108F10888EE880E83E0981EA11C8F
:1004D000B11CC114D104E104F10419F7DDCFFF9080
:1004E000EF90DF90CF90BF90AF909F908F90089546
:1004F0008EBD00000DB407FEFDCF8EB50895CF93DD
:10050000DF939CB59F7D9CBD9CB5937F9CBD9CB5A6
:100510009C7F9CBD9DB591609DBDCCE1D2E0682FD4
:100520008A810E9481018C899D89DF91CF910C94F1
:100530000E0280E00C947F021F93CF93DF931F92F3
:10054000CDB7DEB789830E94990289818F710E949D
:1005500078028FEF0E947802182F81E00E947F02BC
:10056000812F0F90DF91CF911F9108951F93CF930B
:10057000DF931F921F92CDB7DEB76A8389830E94F3
:10058000990289818F7180620E947802182F6A8196
:10059000862F0E94780281E00E947F02812F0F90B7
:1005A0000F90DF91CF911F910895CF930E949902F0
:1005B00081EE0E947802C82F81E00E947F028C2F7A
:1005C000CF9108951F920F920FB60F9211242F937F
:1005D0003F938F939F93AF93BF9380911402909119
:1005E0001502A0911602B09117023091130223E078
:1005F000230F2D3720F40196A11DB11D05C026E85B
:10060000230F0296A11DB11D2093130280931402A3
:1006100090931502A0931602B093170280911802CE
:1006200090911902A0911A02B0911B020196A11D8E
:10063000B11D8093180290931902A0931A02B093EF
:100640001B02BF91AF919F918F913F912F910F907E
:100650000FBE0F901F901895CF93DF93CDB7DEB7E5
:100660002C970FB6F894DEBF0FBECDBF789484B53B
:10067000826084BD84B5816084BD85B5826085BD9E
:1006800085B5816085BD80916E00816080936E002C
:10069000109281008091810082608093810080911E
:1006A00081008160809381008091800081608093CF
:1006B00080008091B10084608093B1008091B0008F
:1006C00081608093B000809191008260809391005E
:1006D0008091910081608093910080919000816071
:1006E000809390008091A10082608093A10080910E
:1006F000A10081608093A1008091A000816080931F
:10070000A0008091210182608093210180912101CC
:10071000816080932101809120018160809320017C
:1007200080917A00846080937A0080917A00826060
:1007300080937A0080917A00816080937A00809122
:100740007A00806880937A001092C10080911C0228
:1007500090911D0220911E0230911F028217930773
:1007600011F00E94620180911E0290911F0220915F
:100770001C0230911D022817390711F00E946201F6
:100780001FB7F89480911202811124C0E5E0F2E0D5
:100790008491EBE4F2E09491E82FF0E0EE0FFF1F7C
:1007A000EA54FE4FA591B491EC91E92321F461E064
:1007B00085E30E94810185E30E9462018CB580611E
:1007C0008CBD8CB580648CBD84E30E94620183E3A0
:1007D0000E946201809112028F5F809312021FBFFC
:1007E00080E00E94FE0181E00E947F0265E070E0EF
:1007F00080E090E00E943E026CE080E00E94B60241
:100800006FE584E00E94B60286E00E949C02877D2C
:10081000182F10628BE990E0A0E0B0E080932C02EA
:1008200090932D02A0932E02B0932F02612F86E0A9
:100830000E94B60286E00E949C02811709F41AC148
:1008400086E00E949C0286E00E949C0245E550E002
:1008500060E070E040932C0250932D0260932E02D2
:1008600070932F02682F677D86E00E94B60286E0B3
:100870000E949C020E94990280E50E94780283E710
:100880000E94780281E00E947F0260E08DE10E9478
:10089000B60260E08CE10E94B6021092240260E78A
:1008A00087E00E94B6026CE485E00E94B6020E94D6
:1008B000990282EE0E94780281E00E947F020E94EB
:1008C000D50280E00E949C0281FD0BC0682F62600F
:1008D00080E00E94B60265E070E080E090E00E9457
:1008E0003E0280E00E949C02682F6E7F80E00E94A2
:1008F000B602D0902A020E9499028AE20E947802EF
:1009000000E012E07801C02ED00EDE1431F0F701C5
:1009100081917F010E947802F8CF81E00E947F02DE
:10092000F0902A020E94990280E30E947802FC0C57
:10093000F01631F0F80181918F010E947802F8CF12
:1009400081E00E947F026091230281E10E94B60251
:1009500086E00E949C02887F682F616086E00E948A
:10096000B60280E00E94FE0180912C0290912D023F
:100970000E940E028DE10E949C0281FF08C08091BE
:100980002C0290912D020E940E020E94D50280E05E
:100990000E949C02682F6E7F80E00E94B60282E077
:1009A0000E949C02E0E5F1E0E49161E070E001C0AA
:1009B000660FEA95EAF7682B82E00E94B6028CE0A7
:1009C000B82E90E0E92E90E0F92EE6E0F2E0DE01AC
:1009D00011968B2D01900D928A95E1F710912302CB
:1009E000012F1D3008F00CE080912402811102C01B
:1009F000101B01C010E00E94990280EA0E94780258
:100A0000CE0101966C01015030F0F60181916F0129
:100A10000E947802F8CF112329F080E00E9478022A
:100A20001150F9CF81E00E947F0281E00E94FE0117
:100A30000E9499028FEF0E947802182F81E00E9495
:100A40007F021073A9F380E00E94FE0160E787E057
:100A50000E94B60284FD0E94D50268EE73E080E039
:100A600090E00E943E02E114F10409F4AECF0E942E
:100A70000000ABCF81E080932202E2CEECE1F2E015
:100A800087E090E09183808388E090E09383828385
:100A9000168280E28783108685E0868785E090E075
:100AA000A0E0B0E0848B958BA68BB78B1186089560
:100AB000EE0FFF1F881F8BBF0790F691E02D199452
:040AC000F894FFCFD8
:100AC40030303030310048656C6C6F20576F726C79
:020AD4006400BC
:00000001FF
